{
  "_format": "hh-sol-artifact-1",
  "contractName": "Lottery",
  "sourceName": "contracts/Lottery.sol",
  "abi": [
    {
      "inputs": [],
      "stateMutability": "nonpayable",
      "type": "constructor"
    },
    {
      "inputs": [],
      "name": "PickWinner",
      "outputs": [],
      "stateMutability": "nonpayable",
      "type": "function"
    },
    {
      "inputs": [],
      "name": "allPlayer",
      "outputs": [
        {
          "internalType": "address payable[]",
          "name": "",
          "type": "address[]"
        }
      ],
      "stateMutability": "view",
      "type": "function"
    },
    {
      "inputs": [],
      "name": "getbalance",
      "outputs": [
        {
          "internalType": "uint256",
          "name": "",
          "type": "uint256"
        }
      ],
      "stateMutability": "view",
      "type": "function"
    },
    {
      "inputs": [
        {
          "internalType": "uint256",
          "name": "",
          "type": "uint256"
        }
      ],
      "name": "players",
      "outputs": [
        {
          "internalType": "address payable",
          "name": "",
          "type": "address"
        }
      ],
      "stateMutability": "view",
      "type": "function"
    },
    {
      "inputs": [],
      "name": "winner",
      "outputs": [
        {
          "internalType": "address payable",
          "name": "",
          "type": "address"
        }
      ],
      "stateMutability": "view",
      "type": "function"
    },
    {
      "stateMutability": "payable",
      "type": "receive"
    }
  ],
  "bytecode": "0x608060405234801561001057600080fd5b5033600160006101000a81548173ffffffffffffffffffffffffffffffffffffffff021916908373ffffffffffffffffffffffffffffffffffffffff160217905550610aa3806100616000396000f3fe60806040526004361061004e5760003560e01c80634d9b3d5d14610107578063aa295dce14610132578063b7d2c6541461015d578063dfbf53ae14610174578063f71d96cb1461019f57610102565b3661010257670de0b6b3a7640000341461009d576040517f08c379a00000000000000000000000000000000000000000000000000000000081526004016100949061069d565b60405180910390fd5b6000339080600181540180825580915050600190039060005260206000200160009091909190916101000a81548173ffffffffffffffffffffffffffffffffffffffff021916908373ffffffffffffffffffffffffffffffffffffffff160217905550005b600080fd5b34801561011357600080fd5b5061011c6101dc565b60405161012991906106d6565b60405180910390f35b34801561013e57600080fd5b50610147610274565b60405161015491906107e1565b60405180910390f35b34801561016957600080fd5b50610172610302565b005b34801561018057600080fd5b506101896104f2565b6040516101969190610812565b60405180910390f35b3480156101ab57600080fd5b506101c660048036038101906101c1919061085e565b610518565b6040516101d39190610812565b60405180910390f35b60003373ffffffffffffffffffffffffffffffffffffffff16600160009054906101000a900473ffffffffffffffffffffffffffffffffffffffff1673ffffffffffffffffffffffffffffffffffffffff161461026e576040517f08c379a0000000000000000000000000000000000000000000000000000000008152600401610265906108d7565b60405180910390fd5b47905090565b606060008054806020026020016040519081016040528092919081815260200182805480156102f857602002820191906000526020600020905b8160009054906101000a900473ffffffffffffffffffffffffffffffffffffffff1673ffffffffffffffffffffffffffffffffffffffff16815260200190600101908083116102ae575b5050505050905090565b3373ffffffffffffffffffffffffffffffffffffffff16600160009054906101000a900473ffffffffffffffffffffffffffffffffffffffff1673ffffffffffffffffffffffffffffffffffffffff1614610392576040517f08c379a0000000000000000000000000000000000000000000000000000000008152600401610389906108d7565b60405180910390fd5b600061039e6003610557565b9050600081815481106103b4576103b36108f7565b5b9060005260206000200160009054906101000a900473ffffffffffffffffffffffffffffffffffffffff16600260006101000a81548173ffffffffffffffffffffffffffffffffffffffff021916908373ffffffffffffffffffffffffffffffffffffffff160217905550600260009054906101000a900473ffffffffffffffffffffffffffffffffffffffff1673ffffffffffffffffffffffffffffffffffffffff166108fc6104636101dc565b9081150290604051600060405180830381858888f1935050505015801561048e573d6000803e3d6000fd5b50600067ffffffffffffffff8111156104aa576104a9610926565b5b6040519080825280602002602001820160405280156104d85781602001602082028036833780820191505090505b50600090805190602001906104ee929190610599565b5050565b600260009054906101000a900473ffffffffffffffffffffffffffffffffffffffff1681565b6000818154811061052857600080fd5b906000526020600020016000915054906101000a900473ffffffffffffffffffffffffffffffffffffffff1681565b60008142443360405160200161056f939291906109d0565b6040516020818303038152906040528051906020012060001c6105929190610a3c565b9050919050565b828054828255906000526020600020908101928215610612579160200282015b828111156106115782518260006101000a81548173ffffffffffffffffffffffffffffffffffffffff021916908373ffffffffffffffffffffffffffffffffffffffff160217905550916020019190600101906105b9565b5b50905061061f9190610623565b5090565b5b8082111561063c576000816000905550600101610624565b5090565b600082825260208201905092915050565b7f7061792031206574686572000000000000000000000000000000000000000000600082015250565b6000610687600b83610640565b915061069282610651565b602082019050919050565b600060208201905081810360008301526106b68161067a565b9050919050565b6000819050919050565b6106d0816106bd565b82525050565b60006020820190506106eb60008301846106c7565b92915050565b600081519050919050565b600082825260208201905092915050565b6000819050602082019050919050565b600073ffffffffffffffffffffffffffffffffffffffff82169050919050565b60006107488261071d565b9050919050565b6107588161073d565b82525050565b600061076a838361074f565b60208301905092915050565b6000602082019050919050565b600061078e826106f1565b61079881856106fc565b93506107a38361070d565b8060005b838110156107d45781516107bb888261075e565b97506107c683610776565b9250506001810190506107a7565b5085935050505092915050565b600060208201905081810360008301526107fb8184610783565b905092915050565b61080c8161073d565b82525050565b60006020820190506108276000830184610803565b92915050565b600080fd5b61083b816106bd565b811461084657600080fd5b50565b60008135905061085881610832565b92915050565b6000602082840312156108745761087361082d565b5b600061088284828501610849565b91505092915050565b7f752072206e6f74206d616e616765720000000000000000000000000000000000600082015250565b60006108c1600f83610640565b91506108cc8261088b565b602082019050919050565b600060208201905081810360008301526108f0816108b4565b9050919050565b7f4e487b7100000000000000000000000000000000000000000000000000000000600052603260045260246000fd5b7f4e487b7100000000000000000000000000000000000000000000000000000000600052604160045260246000fd5b6000819050919050565b61097061096b826106bd565b610955565b82525050565b60006109818261071d565b9050919050565b60008160601b9050919050565b60006109a082610988565b9050919050565b60006109b282610995565b9050919050565b6109ca6109c582610976565b6109a7565b82525050565b60006109dc828661095f565b6020820191506109ec828561095f565b6020820191506109fc82846109b9565b601482019150819050949350505050565b7f4e487b7100000000000000000000000000000000000000000000000000000000600052601260045260246000fd5b6000610a47826106bd565b9150610a52836106bd565b925082610a6257610a61610a0d565b5b82820690509291505056fea26469706673582212201ab2acd863f089b9b0ca921a785381c45ca6a0c361c34ac2edaf09c010afe6c064736f6c63430008090033",
  "linkReferences": {},
  "deployedLinkReferences": {}
}