{
    "_format": "hh-sol-artifact-1",
    "contractName": "Lottery",
    "sourceName": "contracts/Lottery.sol",
    "abi": [
        {
            "inputs": [],
            "stateMutability": "nonpayable",
            "type": "constructor"
        },
        {
            "inputs": [],
            "name": "PickWinner",
            "outputs": [],
            "stateMutability": "nonpayable",
            "type": "function"
        },
        {
            "inputs": [],
            "name": "allPlayers",
            "outputs": [
                {
                    "internalType": "address payable[]",
                    "name": "",
                    "type": "address[]"
                }
            ],
            "stateMutability": "view",
            "type": "function"
        },
        {
            "inputs": [],
            "name": "getbalance",
            "outputs": [
                {
                    "internalType": "uint256",
                    "name": "",
                    "type": "uint256"
                }
            ],
            "stateMutability": "view",
            "type": "function"
        },
        {
            "inputs": [
                {
                    "internalType": "uint256",
                    "name": "",
                    "type": "uint256"
                }
            ],
            "name": "players",
            "outputs": [
                {
                    "internalType": "address payable",
                    "name": "",
                    "type": "address"
                }
            ],
            "stateMutability": "view",
            "type": "function"
        },
        {
            "inputs": [],
            "name": "winner",
            "outputs": [
                {
                    "internalType": "address payable",
                    "name": "",
                    "type": "address"
                }
            ],
            "stateMutability": "view",
            "type": "function"
        },
        {
            "stateMutability": "payable",
            "type": "receive"
        }
    ],
    "bytecode": "0x608060405234801561001057600080fd5b5033600160006101000a81548173ffffffffffffffffffffffffffffffffffffffff021916908373ffffffffffffffffffffffffffffffffffffffff160217905550610aa0806100616000396000f3fe60806040526004361061004e5760003560e01c80634d9b3d5d14610104578063b0ec80941461012f578063b7d2c6541461015a578063dfbf53ae14610171578063f71d96cb1461019c576100ff565b366100ff57640ba43b7400341461009a576040517f08c379a00000000000000000000000000000000000000000000000000000000081526004016100919061069a565b60405180910390fd5b6000339080600181540180825580915050600190039060005260206000200160009091909190916101000a81548173ffffffffffffffffffffffffffffffffffffffff021916908373ffffffffffffffffffffffffffffffffffffffff160217905550005b600080fd5b34801561011057600080fd5b506101196101d9565b60405161012691906106d3565b60405180910390f35b34801561013b57600080fd5b50610144610271565b60405161015191906107de565b60405180910390f35b34801561016657600080fd5b5061016f6102ff565b005b34801561017d57600080fd5b506101866104ef565b604051610193919061080f565b60405180910390f35b3480156101a857600080fd5b506101c360048036038101906101be919061085b565b610515565b6040516101d0919061080f565b60405180910390f35b60003373ffffffffffffffffffffffffffffffffffffffff16600160009054906101000a900473ffffffffffffffffffffffffffffffffffffffff1673ffffffffffffffffffffffffffffffffffffffff161461026b576040517f08c379a0000000000000000000000000000000000000000000000000000000008152600401610262906108d4565b60405180910390fd5b47905090565b606060008054806020026020016040519081016040528092919081815260200182805480156102f557602002820191906000526020600020905b8160009054906101000a900473ffffffffffffffffffffffffffffffffffffffff1673ffffffffffffffffffffffffffffffffffffffff16815260200190600101908083116102ab575b5050505050905090565b3373ffffffffffffffffffffffffffffffffffffffff16600160009054906101000a900473ffffffffffffffffffffffffffffffffffffffff1673ffffffffffffffffffffffffffffffffffffffff161461038f576040517f08c379a0000000000000000000000000000000000000000000000000000000008152600401610386906108d4565b60405180910390fd5b600061039b6003610554565b9050600081815481106103b1576103b06108f4565b5b9060005260206000200160009054906101000a900473ffffffffffffffffffffffffffffffffffffffff16600260006101000a81548173ffffffffffffffffffffffffffffffffffffffff021916908373ffffffffffffffffffffffffffffffffffffffff160217905550600260009054906101000a900473ffffffffffffffffffffffffffffffffffffffff1673ffffffffffffffffffffffffffffffffffffffff166108fc6104606101d9565b9081150290604051600060405180830381858888f1935050505015801561048b573d6000803e3d6000fd5b50600067ffffffffffffffff8111156104a7576104a6610923565b5b6040519080825280602002602001820160405280156104d55781602001602082028036833780820191505090505b50600090805190602001906104eb929190610596565b5050565b600260009054906101000a900473ffffffffffffffffffffffffffffffffffffffff1681565b6000818154811061052557600080fd5b906000526020600020016000915054906101000a900473ffffffffffffffffffffffffffffffffffffffff1681565b60008142443360405160200161056c939291906109cd565b6040516020818303038152906040528051906020012060001c61058f9190610a39565b9050919050565b82805482825590600052602060002090810192821561060f579160200282015b8281111561060e5782518260006101000a81548173ffffffffffffffffffffffffffffffffffffffff021916908373ffffffffffffffffffffffffffffffffffffffff160217905550916020019190600101906105b6565b5b50905061061c9190610620565b5090565b5b80821115610639576000816000905550600101610621565b5090565b600082825260208201905092915050565b7f7061792031206574686572000000000000000000000000000000000000000000600082015250565b6000610684600b8361063d565b915061068f8261064e565b602082019050919050565b600060208201905081810360008301526106b381610677565b9050919050565b6000819050919050565b6106cd816106ba565b82525050565b60006020820190506106e860008301846106c4565b92915050565b600081519050919050565b600082825260208201905092915050565b6000819050602082019050919050565b600073ffffffffffffffffffffffffffffffffffffffff82169050919050565b60006107458261071a565b9050919050565b6107558161073a565b82525050565b6000610767838361074c565b60208301905092915050565b6000602082019050919050565b600061078b826106ee565b61079581856106f9565b93506107a08361070a565b8060005b838110156107d15781516107b8888261075b565b97506107c383610773565b9250506001810190506107a4565b5085935050505092915050565b600060208201905081810360008301526107f88184610780565b905092915050565b6108098161073a565b82525050565b60006020820190506108246000830184610800565b92915050565b600080fd5b610838816106ba565b811461084357600080fd5b50565b6000813590506108558161082f565b92915050565b6000602082840312156108715761087061082a565b5b600061087f84828501610846565b91505092915050565b7f752072206e6f74206d616e616765720000000000000000000000000000000000600082015250565b60006108be600f8361063d565b91506108c982610888565b602082019050919050565b600060208201905081810360008301526108ed816108b1565b9050919050565b7f4e487b7100000000000000000000000000000000000000000000000000000000600052603260045260246000fd5b7f4e487b7100000000000000000000000000000000000000000000000000000000600052604160045260246000fd5b6000819050919050565b61096d610968826106ba565b610952565b82525050565b600061097e8261071a565b9050919050565b60008160601b9050919050565b600061099d82610985565b9050919050565b60006109af82610992565b9050919050565b6109c76109c282610973565b6109a4565b82525050565b60006109d9828661095c565b6020820191506109e9828561095c565b6020820191506109f982846109b6565b601482019150819050949350505050565b7f4e487b7100000000000000000000000000000000000000000000000000000000600052601260045260246000fd5b6000610a44826106ba565b9150610a4f836106ba565b925082610a5f57610a5e610a0a565b5b82820690509291505056fea2646970667358221220357d0a7557fcbc949136573dd3945461d43c4cf498a0334922179265c943749d64736f6c63430008090033",
    "linkReferences": {},
    "deployedLinkReferences": {}
}